{
  "contractName": "Faucet",
  "abi": [
    {
      "inputs": [],
      "name": "numOfFunders",
      "outputs": [
        {
          "internalType": "uint256",
          "name": "",
          "type": "uint256"
        }
      ],
      "stateMutability": "view",
      "type": "function",
      "constant": true
    },
    {
      "inputs": [],
      "name": "owner",
      "outputs": [
        {
          "internalType": "address",
          "name": "",
          "type": "address"
        }
      ],
      "stateMutability": "view",
      "type": "function",
      "constant": true
    },
    {
      "stateMutability": "payable",
      "type": "receive",
      "payable": true
    },
    {
      "inputs": [],
      "name": "emitLog",
      "outputs": [
        {
          "internalType": "bytes32",
          "name": "",
          "type": "bytes32"
        }
      ],
      "stateMutability": "pure",
      "type": "function",
      "constant": true
    },
    {
      "inputs": [],
      "name": "addFunds",
      "outputs": [],
      "stateMutability": "payable",
      "type": "function",
      "payable": true
    },
    {
      "inputs": [
        {
          "internalType": "address",
          "name": "newOwner",
          "type": "address"
        }
      ],
      "name": "transferOwnership",
      "outputs": [],
      "stateMutability": "nonpayable",
      "type": "function"
    },
    {
      "inputs": [
        {
          "internalType": "uint8",
          "name": "index",
          "type": "uint8"
        }
      ],
      "name": "getFunderAtIndex",
      "outputs": [
        {
          "internalType": "address",
          "name": "",
          "type": "address"
        }
      ],
      "stateMutability": "view",
      "type": "function",
      "constant": true
    },
    {
      "inputs": [
        {
          "internalType": "uint256",
          "name": "withdrawAmount",
          "type": "uint256"
        }
      ],
      "name": "withdraw",
      "outputs": [],
      "stateMutability": "nonpayable",
      "type": "function"
    },
    {
      "inputs": [],
      "name": "getAllFunders",
      "outputs": [
        {
          "internalType": "address[]",
          "name": "",
          "type": "address[]"
        }
      ],
      "stateMutability": "view",
      "type": "function",
      "constant": true
    },
    {
      "inputs": [],
      "name": "justTesting",
      "outputs": [
        {
          "internalType": "uint256",
          "name": "",
          "type": "uint256"
        }
      ],
      "stateMutability": "pure",
      "type": "function",
      "constant": true
    }
  ],
  "bytecode": "0x608060405234801561001057600080fd5b50336000806101000a81548173ffffffffffffffffffffffffffffffffffffffff021916908373ffffffffffffffffffffffffffffffffffffffff160217905550610b90806100606000396000f3fe60806040526004361061008a5760003560e01c8063a23f8a3d11610059578063a23f8a3d14610152578063a26759cb1461017d578063af7f2c9b14610187578063f2fde38b146101b2578063f42c13bf146101db57610091565b80630a93cf33146100965780632e1a7d4d146100d35780636fbbb55d146100fc5780638da5cb5b1461012757610091565b3661009157005b600080fd5b3480156100a257600080fd5b506100bd60048036038101906100b8919061078e565b610206565b6040516100ca91906108af565b60405180910390f35b3480156100df57600080fd5b506100fa60048036038101906100f59190610765565b610246565b005b34801561010857600080fd5b506101116102dd565b60405161011e91906108ca565b60405180910390f35b34801561013357600080fd5b5061013c6104b1565b60405161014991906108af565b60405180910390f35b34801561015e57600080fd5b506101676104d5565b6040516101749190610947565b60405180910390f35b6101856104de565b005b34801561019357600080fd5b5061019c6105fe565b6040516101a99190610947565b60405180910390f35b3480156101be57600080fd5b506101d960048036038101906101d4919061073c565b610604565b005b3480156101e757600080fd5b506101f06106d5565b6040516101fd91906108ec565b60405180910390f35b6000600360008360ff16815260200190815260200160002060009054906101000a900473ffffffffffffffffffffffffffffffffffffffff169050919050565b80670de0b6b3a7640000811115610292576040517f08c379a000000000000000000000000000000000000000000000000000000000815260040161028990610907565b60405180910390fd5b3373ffffffffffffffffffffffffffffffffffffffff166108fc839081150290604051600060405180830381858888f193505050501580156102d8573d6000803e3d6000fd5b505050565b606060008054906101000a900473ffffffffffffffffffffffffffffffffffffffff1673ffffffffffffffffffffffffffffffffffffffff163373ffffffffffffffffffffffffffffffffffffffff161461036d576040517f08c379a000000000000000000000000000000000000000000000000000000000815260040161036490610927565b60405180910390fd5b600060015467ffffffffffffffff8111156103b1577f4e487b7100000000000000000000000000000000000000000000000000000000600052604160045260246000fd5b6040519080825280602002602001820160405280156103df5781602001602082028036833780820191505090505b50905060005b6001548110156104a9576003600082815260200190815260200160002060009054906101000a900473ffffffffffffffffffffffffffffffffffffffff1682828151811061045c577f4e487b7100000000000000000000000000000000000000000000000000000000600052603260045260246000fd5b602002602001019073ffffffffffffffffffffffffffffffffffffffff16908173ffffffffffffffffffffffffffffffffffffffff168152505080806104a1906109ff565b9150506103e5565b508091505090565b60008054906101000a900473ffffffffffffffffffffffffffffffffffffffff1681565b60006004905090565b6000339050600260008273ffffffffffffffffffffffffffffffffffffffff1673ffffffffffffffffffffffffffffffffffffffff16815260200190815260200160002060009054906101000a900460ff166105fb57600060016000815480929190610549906109ff565b9190505590506001600260008473ffffffffffffffffffffffffffffffffffffffff1673ffffffffffffffffffffffffffffffffffffffff16815260200190815260200160002060006101000a81548160ff021916908315150217905550816003600083815260200190815260200160002060006101000a81548173ffffffffffffffffffffffffffffffffffffffff021916908373ffffffffffffffffffffffffffffffffffffffff160217905550505b50565b60015481565b60008054906101000a900473ffffffffffffffffffffffffffffffffffffffff1673ffffffffffffffffffffffffffffffffffffffff163373ffffffffffffffffffffffffffffffffffffffff1614610692576040517f08c379a000000000000000000000000000000000000000000000000000000000815260040161068990610927565b60405180910390fd5b806000806101000a81548173ffffffffffffffffffffffffffffffffffffffff021916908373ffffffffffffffffffffffffffffffffffffffff16021790555050565b60007f48656c6c6f20576f726c64000000000000000000000000000000000000000000905090565b60008135905061070c81610b15565b92915050565b60008135905061072181610b2c565b92915050565b60008135905061073681610b43565b92915050565b60006020828403121561074e57600080fd5b600061075c848285016106fd565b91505092915050565b60006020828403121561077757600080fd5b600061078584828501610712565b91505092915050565b6000602082840312156107a057600080fd5b60006107ae84828501610727565b91505092915050565b60006107c383836107cf565b60208301905092915050565b6107d8816109ac565b82525050565b6107e7816109ac565b82525050565b60006107f882610972565b610802818561098a565b935061080d83610962565b8060005b8381101561083e57815161082588826107b7565b97506108308361097d565b925050600181019050610811565b5085935050505092915050565b610854816109be565b82525050565b600061086760218361099b565b915061087282610a77565b604082019050919050565b600061088a60218361099b565b915061089582610ac6565b604082019050919050565b6108a9816109e8565b82525050565b60006020820190506108c460008301846107de565b92915050565b600060208201905081810360008301526108e481846107ed565b905092915050565b6000602082019050610901600083018461084b565b92915050565b600060208201905081810360008301526109208161085a565b9050919050565b600060208201905081810360008301526109408161087d565b9050919050565b600060208201905061095c60008301846108a0565b92915050565b6000819050602082019050919050565b600081519050919050565b6000602082019050919050565b600082825260208201905092915050565b600082825260208201905092915050565b60006109b7826109c8565b9050919050565b6000819050919050565b600073ffffffffffffffffffffffffffffffffffffffff82169050919050565b6000819050919050565b600060ff82169050919050565b6000610a0a826109e8565b91507fffffffffffffffffffffffffffffffffffffffffffffffffffffffffffffffff821415610a3d57610a3c610a48565b5b600182019050919050565b7f4e487b7100000000000000000000000000000000000000000000000000000000600052601160045260246000fd5b7f43616e6e6f74207769746864726177206d6f7265207468616e2031206574686560008201527f7200000000000000000000000000000000000000000000000000000000000000602082015250565b7f4f6e6c79206f776e65722063616e2063616c6c20746869732066756e6374696f60008201527f6e00000000000000000000000000000000000000000000000000000000000000602082015250565b610b1e816109ac565b8114610b2957600080fd5b50565b610b35816109e8565b8114610b4057600080fd5b50565b610b4c816109f2565b8114610b5757600080fd5b5056fea26469706673582212200511f2349a9fa41482d758e0db6160eca9689d2c42c1e6f582820c8a33ccc0d264736f6c63430008040033",
  "immutableReferences": {},
  "source": "// SPDX-License-Identifier: MIT\r\npragma solidity >=0.4.22 <0.9.0;\r\n\r\nimport \"./Owned.sol\";\r\nimport \"./Logger.sol\";\r\nimport \"./IFaucet.sol\";\r\n\r\ncontract Faucet is Owned, Logger, IFaucet {\r\n    // storage variables(for state)\r\n    // uint256 public funds = 1000;\r\n\r\n    // int256 public counter = -10;\r\n\r\n    // public means this will be apart of the interface\r\n    // private variables can only be accessed from within the smart contract\r\n    // internal variables can be accessed from within smart contract and also derived smart contracts\r\n    uint256 public numOfFunders;\r\n    mapping(address => bool) private funders;\r\n    mapping(uint256 => address) private lutFunders;\r\n\r\n    // allows for you to reuse code that's in the block\r\n    modifier limitWithdraw(uint256 withdrawAmount) {\r\n        require(\r\n            withdrawAmount <= 1000000000000000000,\r\n            \"Cannot withdraw more than 1 ether\"\r\n        );\r\n        // required for every modifer block, represents the rest of the code from the function that the modifier is wrapped around.\r\n        _;\r\n    }\r\n\r\n    // this is a special function\r\n    // it's called when you make a tx that doesn't specify a function name to call\r\n    // payable allows for you to receive ether to execute the function\r\n    // external function are part of the contract interface\r\n    // which means they can be called via contracts and other txs\r\n    receive() external payable {}\r\n\r\n    function emitLog() public pure override returns (bytes32) {\r\n        return \"Hello World\";\r\n    }\r\n\r\n    // must be payable so you can send funds in a transaction\r\n    // Transactions (can generate state changes) and require gas fee\r\n    function addFunds() external payable override {\r\n        // msg is a special object that holds information related to the transaction and sender\r\n        // can get data, gas, sender(address), sig, value\r\n        address funder = msg.sender;\r\n        if (!funders[funder]) {\r\n            uint256 index = numOfFunders++;\r\n            funders[funder] = true;\r\n            lutFunders[index] = funder;\r\n        }\r\n    }\r\n\r\n    function transferOwnership(address newOwner) external onlyOwner {\r\n        owner = newOwner;\r\n    }\r\n\r\n    function getFunderAtIndex(uint8 index) external view returns (address) {\r\n        return lutFunders[index];\r\n    }\r\n\r\n    function withdraw(uint256 withdrawAmount)\r\n        external\r\n        override\r\n        limitWithdraw(withdrawAmount)\r\n    {\r\n        payable(msg.sender).transfer(withdrawAmount);\r\n    }\r\n\r\n    function getAllFunders()\r\n        external\r\n        view\r\n        onlyOwner\r\n        returns (address[] memory)\r\n    {\r\n        address[] memory _funders = new address[](numOfFunders);\r\n\r\n        for (uint256 i = 0; i < numOfFunders; i++) {\r\n            _funders[i] = lutFunders[i];\r\n        }\r\n\r\n        return _funders;\r\n    }\r\n\r\n    // [pure and view](read only calls, no gas fee)\r\n    // view - indicates that the function will not alter the storage state in any way.\r\n    // pure - even more strict than view, indicates that the function won't read the storage state.\r\n    function justTesting() external pure returns (uint256) {\r\n        return 2 + 2;\r\n    }\r\n}\r\n\r\n// external means you cannot call that resource from within your smart contract, they can only be called from outside of the smart contract(if you use the \"this\" keyword to call a function within your smart-\r\n// contract there will be higher gas fees)\r\n// public means you can call that resource from within your smart contract, they can also be called from outside of the smart contract.\r\n// Block info\r\n// Nonce - a hash that when combined with the minHash proofs that\r\n// the block has gone through proof of work(POW)\r\n// 8 bytes => 64 bits\r\n// to talk to the node on the network you can make JSON-RPC http calls\r\n// JSON RPC is a stateless, light-weight remote procedure call (RPC) protocol. Primarily this specification defines several data structures and the rules around their processing.\r\n// It is transport agnostic in that the concepts can be used within the same process, over sockets, over HTTP, or in many various message passing environments. It uses JSON (RFC 4627) as data format.\r\n\r\n// example JS for smart contract communication:\r\n// const instance = await Faucet.deployed();\r\n// instance.addFunds({from: accounts[0], value: \"2\"})\r\n",
  "sourcePath": "C:\\Users\\dayvo\\Documents\\eth-solidity\\init-app\\faucet\\contracts\\FaucetContract.sol",
  "compiler": {
    "name": "solc",
    "version": "0.8.4+commit.c7e474f2.Emscripten.clang"
  },
  "schemaVersion": "3.4.3",
  "updatedAt": "2021-11-13T18:41:58.889Z",
  "networkType": "ethereum",
  "devdoc": {
    "kind": "dev",
    "methods": {},
    "version": 1
  },
  "userdoc": {
    "kind": "user",
    "methods": {},
    "version": 1
  }
}